{"abi":[{"type":"constructor","inputs":[{"name":"_owner","type":"address","internalType":"address"}],"stateMutability":"nonpayable"},{"type":"function","name":"entryPoint","inputs":[],"outputs":[{"name":"","type":"address","internalType":"contract IEntryPoint"}],"stateMutability":"view"},{"type":"function","name":"execute","inputs":[{"name":"dest","type":"address","internalType":"address"},{"name":"value","type":"uint256","internalType":"uint256"},{"name":"func","type":"bytes","internalType":"bytes"}],"outputs":[],"stateMutability":"nonpayable"},{"type":"function","name":"owner","inputs":[],"outputs":[{"name":"","type":"address","internalType":"address"}],"stateMutability":"view"},{"type":"function","name":"validateUserOp","inputs":[{"name":"userOp","type":"tuple","internalType":"struct PackedUserOperation","components":[{"name":"sender","type":"address","internalType":"address"},{"name":"nonce","type":"uint256","internalType":"uint256"},{"name":"initCode","type":"bytes","internalType":"bytes"},{"name":"callData","type":"bytes","internalType":"bytes"},{"name":"accountGasLimits","type":"bytes32","internalType":"bytes32"},{"name":"preVerificationGas","type":"uint256","internalType":"uint256"},{"name":"gasFees","type":"bytes32","internalType":"bytes32"},{"name":"paymasterAndData","type":"bytes","internalType":"bytes"},{"name":"signature","type":"bytes","internalType":"bytes"}]},{"name":"userOpHash","type":"bytes32","internalType":"bytes32"},{"name":"missingAccountFunds","type":"uint256","internalType":"uint256"}],"outputs":[{"name":"validationData","type":"uint256","internalType":"uint256"}],"stateMutability":"view"},{"type":"error","name":"ECDSAInvalidSignature","inputs":[]},{"type":"error","name":"ECDSAInvalidSignatureLength","inputs":[{"name":"length","type":"uint256","internalType":"uint256"}]},{"type":"error","name":"ECDSAInvalidSignatureS","inputs":[{"name":"s","type":"bytes32","internalType":"bytes32"}]}],"bytecode":{"object":"0x60c06040526f71727de22e5e9d8baf0edac6f37da03260a052348015602357600080fd5b506040516107bb3803806107bb8339810160408190526040916050565b6001600160a01b0316608052607e565b600060208284031215606157600080fd5b81516001600160a01b0381168114607757600080fd5b9392505050565b60805160a0516107056100b66000396000818160b80152610142015260008181607c01528181610110015261024d01526107056000f3fe608060405234801561001057600080fd5b506004361061004c5760003560e01c806319822f7c146100515780638da5cb5b14610077578063b0d691fe146100b6578063b61d27f6146100dc575b600080fd5b61006461005f366004610521565b6100f1565b6040519081526020015b60405180910390f35b61009e7f000000000000000000000000000000000000000000000000000000000000000081565b6040516001600160a01b03909116815260200161006e565b7f000000000000000000000000000000000000000000000000000000000000000061009e565b6100ef6100ea366004610575565b610105565b005b60006100fd84846101c7565b949350505050565b336001600160a01b037f00000000000000000000000000000000000000000000000000000000000000001614806101645750336001600160a01b037f000000000000000000000000000000000000000000000000000000000000000016145b6101b55760405162461bcd60e51b815260206004820152601960248201527f6f6e6c79206f776e6572206f7220656e74727920706f696e740000000000000060448201526064015b60405180910390fd5b6101c184848484610290565b50505050565b7f19457468657265756d205369676e6564204d6573736167653a0a3332000000006000908152601c829052603c81206102428161020861010087018761060d565b8080601f01602080910402602001604051908101604052809392919081815260200183838082843760009201919091525061031e92505050565b6001600160a01b03167f00000000000000000000000000000000000000000000000000000000000000006001600160a01b03161461028457600191505061028a565b60009150505b92915050565b600080856001600160a01b03168585856040516102ae92919061065b565b60006040518083038185875af1925050503d80600081146102eb576040519150601f19603f3d011682016040523d82523d6000602084013e6102f0565b606091505b50915091508181906103155760405162461bcd60e51b81526004016101ac919061066b565b50505050505050565b60008060008061032e8686610348565b92509250925061033e8282610395565b5090949350505050565b600080600083516041036103825760208401516040850151606086015160001a61037488828585610452565b95509550955050505061038e565b50508151600091506002905b9250925092565b60008260038111156103a9576103a96106b9565b036103b2575050565b60018260038111156103c6576103c66106b9565b036103e45760405163f645eedf60e01b815260040160405180910390fd5b60028260038111156103f8576103f86106b9565b036104195760405163fce698f760e01b8152600481018290526024016101ac565b600382600381111561042d5761042d6106b9565b0361044e576040516335e2f38360e21b8152600481018290526024016101ac565b5050565b600080807f7fffffffffffffffffffffffffffffff5d576e7357a4501ddfe92f46681b20a084111561048d5750600091506003905082610517565b604080516000808252602082018084528a905260ff891692820192909252606081018790526080810186905260019060a0016020604051602081039080840390855afa1580156104e1573d6000803e3d6000fd5b5050604051601f1901519150506001600160a01b03811661050d57506000925060019150829050610517565b9250600091508190505b9450945094915050565b60008060006060848603121561053657600080fd5b833567ffffffffffffffff81111561054d57600080fd5b8401610120818703121561056057600080fd5b95602085013595506040909401359392505050565b6000806000806060858703121561058b57600080fd5b84356001600160a01b03811681146105a257600080fd5b935060208501359250604085013567ffffffffffffffff8111156105c557600080fd5b8501601f810187136105d657600080fd5b803567ffffffffffffffff8111156105ed57600080fd5b8760208284010111156105ff57600080fd5b949793965060200194505050565b6000808335601e1984360301811261062457600080fd5b83018035915067ffffffffffffffff82111561063f57600080fd5b60200191503681900382131561065457600080fd5b9250929050565b8183823760009101908152919050565b602081526000825180602084015260005b81811015610699576020818601810151604086840101520161067c565b506000604082850101526040601f19601f83011684010191505092915050565b634e487b7160e01b600052602160045260246000fdfea2646970667358221220284c4ed7ef0e07501c2eb3e4517dce26e176646898a54d0d1f77d9196a6dcf2064736f6c634300081a0033","linkReferences":{}},"methodIdentifiers":{"entryPoint()":"b0d691fe","execute(address,uint256,bytes)":"b61d27f6","owner()":"8da5cb5b","validateUserOp((address,uint256,bytes,bytes,bytes32,uint256,bytes32,bytes,bytes),bytes32,uint256)":"19822f7c"},"id":35}